:030000000208A64D
:0C08A600787FE4F6D8FD75810702082F6A
:10082F00C2A0C297C296C295C294C293C292C291FD
:10083F00C290D296120800C296D29012085CC29053
:0D084F00D2937F607E4D120804C29380E5B5
:040800007FC07ED463
:10080400E4FDFCC3ED9FEC9E50070DBD00010C8080
:10081400F2900000AF82AE83E4FCFD7BE87AFDF940
:0A082400F8D31208904003A380EA05
:01082E0022A7
:10085C00C297C291D2947F607E4D120804C294D28A
:0B086C0097120800C297D29102087793
:10087700C2A0C292D2957F607E4D120804C295D263
:09088700A0120800C2A0D29222C6
:10089000EB9FF5F0EA9E42F0E99D42F0EC6480C8DF
:0608A00064809845F0227F
:00000001FF
